{"abi":[{"type":"constructor","inputs":[],"stateMutability":"nonpayable"},{"type":"function","name":"createGame","inputs":[],"outputs":[],"stateMutability":"nonpayable"},{"type":"function","name":"eip712Domain","inputs":[],"outputs":[{"name":"fields","type":"bytes1","internalType":"bytes1"},{"name":"name","type":"string","internalType":"string"},{"name":"version","type":"string","internalType":"string"},{"name":"chainId","type":"uint256","internalType":"uint256"},{"name":"verifyingContract","type":"address","internalType":"address"},{"name":"salt","type":"bytes32","internalType":"bytes32"},{"name":"extensions","type":"uint256[]","internalType":"uint256[]"}],"stateMutability":"view"},{"type":"function","name":"flag","inputs":[],"outputs":[{"name":"","type":"uint8","internalType":"uint8"}],"stateMutability":"view"},{"type":"function","name":"getGameState","inputs":[],"outputs":[{"name":"guesses","type":"tuple[]","internalType":"struct RngBinaryGame.GameGuess[]","components":[{"name":"guess","type":"uint8","internalType":"uint8"},{"name":"lt","type":"bool","internalType":"bool"},{"name":"gt","type":"bool","internalType":"bool"}]}],"stateMutability":"view"},{"type":"function","name":"guess","inputs":[{"name":"_guess","type":"uint8","internalType":"uint8"}],"outputs":[],"stateMutability":"nonpayable"},{"type":"event","name":"EIP712DomainChanged","inputs":[],"anonymous":false},{"type":"error","name":"GameFinished","inputs":[]},{"type":"error","name":"GameNotFound","inputs":[]},{"type":"error","name":"InvalidShortString","inputs":[]},{"type":"error","name":"OutOfGuesses","inputs":[]},{"type":"error","name":"SecurityZoneOutOfBounds","inputs":[{"name":"value","type":"int32","internalType":"int32"}]},{"type":"error","name":"SignerNotMessageSender","inputs":[]},{"type":"error","name":"SignerNotOwner","inputs":[]},{"type":"error","name":"StringTooLong","inputs":[{"name":"str","type":"string","internalType":"string"}]}],"bytecode":{"object":"0x6101606040525f60025f6101000a81548160ff021916908360ff16021790555034801561002a575f5ffd5b506040518060400160405280601181526020017f4c7578464845205065726d697373696f6e0000000000000000000000000000008152506040518060400160405280600381526020017f312e3000000000000000000000000000000000000000000000000000000000008152506100aa5f8361014560201b90919060201c565b61012081815250506100c660018261014560201b90919060201c565b6101408181525050818051906020012060e08181525050808051906020012061010081815250504660a0818152505061010361019260201b60201c565b608081815250503073ffffffffffffffffffffffffffffffffffffffff1660c08173ffffffffffffffffffffffffffffffffffffffff16815250505050610736565b5f6020835110156101665761015f836101ec60201b60201c565b905061018c565b826101768361025160201b60201c565b5f0190816101849190610497565b5060ff5f1b90505b92915050565b5f7f8b73c3c69bb8fe3d512ecc4cf759cc79239f7b179b0ffacaa9a75d522b39400f60e0516101005146306040516020016101d19594939291906105cc565b60405160208183030381529060405280519060200120905090565b5f5f829050601f8151111561023857826040517f305a27a900000000000000000000000000000000000000000000000000000000815260040161022f9190610683565b60405180910390fd5b805181610244906106d0565b5f1c175f1b915050919050565b5f819050919050565b5f81519050919050565b7f4e487b71000000000000000000000000000000000000000000000000000000005f52604160045260245ffd5b7f4e487b71000000000000000000000000000000000000000000000000000000005f52602260045260245ffd5b5f60028204905060018216806102d557607f821691505b6020821081036102e8576102e7610291565b5b50919050565b5f819050815f5260205f209050919050565b5f6020601f8301049050919050565b5f82821b905092915050565b5f6008830261034a7fffffffffffffffffffffffffffffffffffffffffffffffffffffffffffffffff8261030f565b610354868361030f565b95508019841693508086168417925050509392505050565b5f819050919050565b5f819050919050565b5f61039861039361038e8461036c565b610375565b61036c565b9050919050565b5f819050919050565b6103b18361037e565b6103c56103bd8261039f565b84845461031b565b825550505050565b5f5f905090565b6103dc6103cd565b6103e78184846103a8565b505050565b5b8181101561040a576103ff5f826103d4565b6001810190506103ed565b5050565b601f82111561044f57610420816102ee565b61042984610300565b81016020851015610438578190505b61044c61044485610300565b8301826103ec565b50505b505050565b5f82821c905092915050565b5f61046f5f1984600802610454565b1980831691505092915050565b5f6104878383610460565b9150826002028217905092915050565b6104a08261025a565b67ffffffffffffffff8111156104b9576104b8610264565b5b6104c382546102be565b6104ce82828561040e565b5f60209050601f8311600181146104ff575f84156104ed578287015190505b6104f7858261047c565b86555061055e565b601f19841661050d866102ee565b5f5b828110156105345784890151825560018201915060208501945060208101905061050f565b86831015610551578489015161054d601f891682610460565b8355505b6001600288020188555050505b505050505050565b5f819050919050565b61057881610566565b82525050565b6105878161036c565b82525050565b5f73ffffffffffffffffffffffffffffffffffffffff82169050919050565b5f6105b68261058d565b9050919050565b6105c6816105ac565b82525050565b5f60a0820190506105df5f83018861056f565b6105ec602083018761056f565b6105f9604083018661056f565b610606606083018561057e565b61061360808301846105bd565b9695505050505050565b5f82825260208201905092915050565b8281835e5f83830152505050565b5f601f19601f8301169050919050565b5f6106558261025a565b61065f818561061d565b935061066f81856020860161062d565b6106788161063b565b840191505092915050565b5f6020820190508181035f83015261069b818461064b565b905092915050565b5f81519050919050565b5f819050602082019050919050565b5f6106c78251610566565b80915050919050565b5f6106da826106a3565b826106e4846106ad565b90506106ef816106bc565b9250602082101561072f5761072a7fffffffffffffffffffffffffffffffffffffffffffffffffffffffffffffffff8360200360080261030f565b831692505b5050919050565b60805160a05160c05160e051610100516101205161014051611ae96107785f395f610bef01525f610bb401525f50505f50505f50505f50505f5050611ae95ff3fe608060405234801561000f575f5ffd5b5060043610610055575f3560e01c80634ba4c16b146100595780637255d7291461007557806384b0196e1461007f578063890eba68146100a3578063b7d0628b146100c1575b5f5ffd5b610073600480360381019061006e91906113cf565b6100df565b005b61007d610638565b005b610087610723565b60405161009a97969594939291906115ca565b60405180910390f35b6100ab6107c8565b6040516100b8919061165b565b60405180910390f35b6100c96107da565b6040516100d69190611785565b60405180910390f35b3373ffffffffffffffffffffffffffffffffffffffff1660035f3373ffffffffffffffffffffffffffffffffffffffff1673ffffffffffffffffffffffffffffffffffffffff1681526020019081526020015f205f015f9054906101000a900473ffffffffffffffffffffffffffffffffffffffff1673ffffffffffffffffffffffffffffffffffffffff16146101a2576040517f26cf189c00000000000000000000000000000000000000000000000000000000815260040160405180910390fd5b5f60035f3373ffffffffffffffffffffffffffffffffffffffff1673ffffffffffffffffffffffffffffffffffffffff1681526020019081526020015f209050600c816002015f9054906101000a900460ff1660ff161061022f576040517f1362bb3600000000000000000000000000000000000000000000000000000000815260040160405180910390fd5b6001816002015f9054906101000a900460ff1660ff161180156102cd575060045f3373ffffffffffffffffffffffffffffffffffffffff1673ffffffffffffffffffffffffffffffffffffffff1681526020019081526020015f205f6001836002015f9054906101000a900460ff166102a891906117d2565b60ff1660ff1681526020019081526020015f205f0160019054906101000a900460ff16155b8015610354575060045f3373ffffffffffffffffffffffffffffffffffffffff1673ffffffffffffffffffffffffffffffffffffffff1681526020019081526020015f205f6001836002015f9054906101000a900460ff1661032f91906117d2565b60ff1660ff1681526020019081526020015f205f0160029054906101000a900460ff16155b1561038b576040517fb537cbca00000000000000000000000000000000000000000000000000000000815260040160405180910390fd5b5f6103988360ff16610ab7565b90506103d86040518060400160405280601881526020017f7472697669616c20656e63727970742066696e69736865640000000000000000815250610ac9565b5f6103e7828460010154610acc565b90506103f281610b15565b5f6103fc82610b3b565b905061043c6040518060400160405280600b81526020017f6c742066696e6973686564000000000000000000000000000000000000000000815250610ac9565b5f61044b848660010154610b54565b905061045681610b15565b5f61046082610b3b565b90506104a06040518060400160405280600b81526020017f67742066696e6973686564000000000000000000000000000000000000000000815250610ac9565b60405180606001604052808860ff168152602001841515815260200182151581525060045f3373ffffffffffffffffffffffffffffffffffffffff1673ffffffffffffffffffffffffffffffffffffffff1681526020019081526020015f205f886002015f9054906101000a900460ff1660ff1660ff1681526020019081526020015f205f820151815f015f6101000a81548160ff021916908360ff1602179055506020820151815f0160016101000a81548160ff0219169083151502179055506040820151815f0160026101000a81548160ff0219169083151502179055509050506001866002015f8282829054906101000a900460ff166105a39190611806565b92506101000a81548160ff021916908360ff1602179055506105f96040518060400160405280600881526020017f66696e6973686564000000000000000000000000000000000000000000000000815250610ac9565b600160025f8282829054906101000a900460ff166106179190611806565b92506101000a81548160ff021916908360ff16021790555050505050505050565b60405180606001604052803373ffffffffffffffffffffffffffffffffffffffff168152602001610667610b9d565b81526020015f60ff1681525060035f3373ffffffffffffffffffffffffffffffffffffffff1673ffffffffffffffffffffffffffffffffffffffff1681526020019081526020015f205f820151815f015f6101000a81548173ffffffffffffffffffffffffffffffffffffffff021916908373ffffffffffffffffffffffffffffffffffffffff160217905550602082015181600101556040820151816002015f6101000a81548160ff021916908360ff160217905550905050565b5f6060805f5f5f6060610734610bac565b61073c610be6565b46305f5f1b5f67ffffffffffffffff81111561075b5761075a61183a565b5b6040519080825280602002602001820160405280156107895781602001602082028036833780820191505090505b507f0f00000000000000000000000000000000000000000000000000000000000000959493929190965096509650965096509650965090919293949596565b60025f9054906101000a900460ff1681565b60603373ffffffffffffffffffffffffffffffffffffffff1660035f3373ffffffffffffffffffffffffffffffffffffffff1673ffffffffffffffffffffffffffffffffffffffff1681526020019081526020015f205f015f9054906101000a900473ffffffffffffffffffffffffffffffffffffffff1673ffffffffffffffffffffffffffffffffffffffff161461089f576040517f26cf189c00000000000000000000000000000000000000000000000000000000815260040160405180910390fd5b5f60035f3373ffffffffffffffffffffffffffffffffffffffff1673ffffffffffffffffffffffffffffffffffffffff1681526020019081526020015f206040518060600160405290815f82015f9054906101000a900473ffffffffffffffffffffffffffffffffffffffff1673ffffffffffffffffffffffffffffffffffffffff1673ffffffffffffffffffffffffffffffffffffffff16815260200160018201548152602001600282015f9054906101000a900460ff1660ff1660ff16815250509050806040015160ff1667ffffffffffffffff8111156109855761098461183a565b5b6040519080825280602002602001820160405280156109be57816020015b6109ab611370565b8152602001906001900390816109a35790505b5091505f5f90505b816040015160ff168160ff161015610ab25760045f3373ffffffffffffffffffffffffffffffffffffffff1673ffffffffffffffffffffffffffffffffffffffff1681526020019081526020015f205f8260ff1660ff1681526020019081526020015f206040518060600160405290815f82015f9054906101000a900460ff1660ff1660ff1681526020015f820160019054906101000a900460ff161515151581526020015f820160029054906101000a900460ff161515151581525050838260ff1681518110610a9a57610a99611867565b5b602002602001018190525080806001019150506109c6565b505090565b5f610ac2825f610c21565b9050919050565b50565b5f610ad683610c3b565b610ae657610ae35f610ab7565b92505b610aef82610c3b565b610aff57610afc5f610ab7565b91505b610b0d600284846014610c4c565b905092915050565b610b1e81610d3b565b610b2e57610b2b5f610d4c565b90505b610b3781610d5e565b5050565b5f5f610b4683610de3565b90505f811415915050919050565b5f610b5e83610c3b565b610b6e57610b6b5f610ab7565b92505b610b7782610c3b565b610b8757610b845f610ab7565b91505b610b95600284846015610c4c565b905092915050565b5f610ba75f610e77565b905090565b6060610be15f7f0000000000000000000000000000000000000000000000000000000000000000610e8b90919063ffffffff16565b905090565b6060610c1c60017f0000000000000000000000000000000000000000000000000000000000000000610e8b90919063ffffffff16565b905090565b5f5f610c2f84600285610f38565b90508091505092915050565b5f610c4582611033565b9050919050565b5f73020000000000000000000000000000000000008073ffffffffffffffffffffffffffffffffffffffff16631888debd8684610c89888861103f565b5f67ffffffffffffffff811115610ca357610ca261183a565b5b604051908082528060200260200182016040528015610cd15781602001602082028036833780820191505090505b506040518563ffffffff1660e01b8152600401610cf19493929190611907565b6020604051808303815f875af1158015610d0d573d5f5f3e3d5ffd5b505050506040513d601f19601f82011682018060405250810190610d319190611982565b9050949350505050565b5f610d4582611033565b9050919050565b5f610d57825f6110d9565b9050919050565b5f73020000000000000000000000000000000000008073ffffffffffffffffffffffffffffffffffffffff16630828982783336040518363ffffffff1660e01b8152600401610dae9291906119ad565b5f604051808303815f87803b158015610dc5575f5ffd5b505af1158015610dd7573d5f5f3e3d5ffd5b50505050819050919050565b5f73020000000000000000000000000000000000008073ffffffffffffffffffffffffffffffffffffffff1663f6bc7f3f836040518263ffffffff1660e01b8152600401610e3191906119d4565b602060405180830381865afa158015610e4c573d5f5f3e3d5ffd5b505050506040513d601f19601f82011682018060405250810190610e709190611982565b9050919050565b5f610e8460025f84611102565b9050919050565b606060ff5f1b8314610ea757610ea08361119d565b9050610f32565b818054610eb390611a1a565b80601f0160208091040260200160405190810160405280929190818152602001828054610edf90611a1a565b8015610f2a5780601f10610f0157610100808354040283529160200191610f2a565b820191905f5260205f20905b815481529060010190602001808311610f0d57829003601f168201915b505050505090505b92915050565b5f73020000000000000000000000000000000000008073ffffffffffffffffffffffffffffffffffffffff16631888debd84601a5f67ffffffffffffffff811115610f8657610f8561183a565b5b604051908082528060200260200182016040528015610fb45781602001602082028036833780820191505090505b50610fcb898960ff16610fc68a61120f565b611266565b6040518563ffffffff1660e01b8152600401610fea9493929190611907565b6020604051808303815f875af1158015611006573d5f5f3e3d5ffd5b505050506040513d601f19601f8201168201806040525081019061102a9190611982565b90509392505050565b5f5f8214159050919050565b60605f600267ffffffffffffffff81111561105d5761105c61183a565b5b60405190808252806020026020018201604052801561108b5781602001602082028036833780820191505090505b50905083815f815181106110a2576110a1611867565b5b60200260200101818152505082816001815181106110c3576110c2611867565b5b6020026020010181815250508091505092915050565b5f5f5f905083156110e957600190505b5f6110f5825f86610f38565b9050809250505092915050565b5f73020000000000000000000000000000000000008073ffffffffffffffffffffffffffffffffffffffff166380d55b698585856040518463ffffffff1660e01b815260040161115493929190611a65565b6020604051808303815f875af1158015611170573d5f5f3e3d5ffd5b505050506040513d601f19601f820116820180604052508101906111949190611982565b90509392505050565b60605f6111a983611322565b90505f602067ffffffffffffffff8111156111c7576111c661183a565b5b6040519080825280601f01601f1916602001820160405280156111f95781602001600182028036833780820191505090505b5090508181528360208201528092505050919050565b5f5f8260030b121561125857816040517f8f568bf800000000000000000000000000000000000000000000000000000000815260040161124f9190611a9a565b60405180910390fd5b8163ffffffff169050919050565b60605f600367ffffffffffffffff8111156112845761128361183a565b5b6040519080825280602002602001820160405280156112b25781602001602082028036833780820191505090505b50905084815f815181106112c9576112c8611867565b5b60200260200101818152505083816001815181106112ea576112e9611867565b5b602002602001018181525050828160028151811061130b5761130a611867565b5b602002602001018181525050809150509392505050565b5f5f60ff835f1c169050601f811115611367576040517fb3512b0c00000000000000000000000000000000000000000000000000000000815260040160405180910390fd5b80915050919050565b60405180606001604052805f60ff1681526020015f151581526020015f151581525090565b5f5ffd5b5f60ff82169050919050565b6113ae81611399565b81146113b8575f5ffd5b50565b5f813590506113c9816113a5565b92915050565b5f602082840312156113e4576113e3611395565b5b5f6113f1848285016113bb565b91505092915050565b5f7fff0000000000000000000000000000000000000000000000000000000000000082169050919050565b61142e816113fa565b82525050565b5f81519050919050565b5f82825260208201905092915050565b8281835e5f83830152505050565b5f601f19601f8301169050919050565b5f61147682611434565b611480818561143e565b935061149081856020860161144e565b6114998161145c565b840191505092915050565b5f819050919050565b6114b6816114a4565b82525050565b5f73ffffffffffffffffffffffffffffffffffffffff82169050919050565b5f6114e5826114bc565b9050919050565b6114f5816114db565b82525050565b5f819050919050565b61150d816114fb565b82525050565b5f81519050919050565b5f82825260208201905092915050565b5f819050602082019050919050565b611545816114a4565b82525050565b5f611556838361153c565b60208301905092915050565b5f602082019050919050565b5f61157882611513565b611582818561151d565b935061158d8361152d565b805f5b838110156115bd5781516115a4888261154b565b97506115af83611562565b925050600181019050611590565b5085935050505092915050565b5f60e0820190506115dd5f83018a611425565b81810360208301526115ef818961146c565b90508181036040830152611603818861146c565b905061161260608301876114ad565b61161f60808301866114ec565b61162c60a0830185611504565b81810360c083015261163e818461156e565b905098975050505050505050565b61165581611399565b82525050565b5f60208201905061166e5f83018461164c565b92915050565b5f81519050919050565b5f82825260208201905092915050565b5f819050602082019050919050565b6116a681611399565b82525050565b5f8115159050919050565b6116c0816116ac565b82525050565b606082015f8201516116da5f85018261169d565b5060208201516116ed60208501826116b7565b50604082015161170060408501826116b7565b50505050565b5f61171183836116c6565b60608301905092915050565b5f602082019050919050565b5f61173382611674565b61173d818561167e565b93506117488361168e565b805f5b8381101561177857815161175f8882611706565b975061176a8361171d565b92505060018101905061174b565b5085935050505092915050565b5f6020820190508181035f83015261179d8184611729565b905092915050565b7f4e487b71000000000000000000000000000000000000000000000000000000005f52601160045260245ffd5b5f6117dc82611399565b91506117e783611399565b9250828203905060ff811115611800576117ff6117a5565b5b92915050565b5f61181082611399565b915061181b83611399565b9250828201905060ff811115611834576118336117a5565b5b92915050565b7f4e487b71000000000000000000000000000000000000000000000000000000005f52604160045260245ffd5b7f4e487b71000000000000000000000000000000000000000000000000000000005f52603260045260245ffd5b7f4e487b71000000000000000000000000000000000000000000000000000000005f52602160045260245ffd5b602081106118d2576118d1611894565b5b50565b5f8190506118e2826118c1565b919050565b5f6118f1826118d5565b9050919050565b611901816118e7565b82525050565b5f60808201905061191a5f83018761164c565b61192760208301866118f8565b8181036040830152611939818561156e565b9050818103606083015261194d818461156e565b905095945050505050565b611961816114a4565b811461196b575f5ffd5b50565b5f8151905061197c81611958565b92915050565b5f6020828403121561199757611996611395565b5b5f6119a48482850161196e565b91505092915050565b5f6040820190506119c05f8301856114ad565b6119cd60208301846114ec565b9392505050565b5f6020820190506119e75f8301846114ad565b92915050565b7f4e487b71000000000000000000000000000000000000000000000000000000005f52602260045260245ffd5b5f6002820490506001821680611a3157607f821691505b602082108103611a4457611a436119ed565b5b50919050565b5f8160030b9050919050565b611a5f81611a4a565b82525050565b5f606082019050611a785f83018661164c565b611a8560208301856114ad565b611a926040830184611a56565b949350505050565b5f602082019050611aad5f830184611a56565b9291505056fea2646970667358221220d65085bcd4ffff6d5bb76baff9f834de85e5cffb5604e454e7e3c9a614a38cfd64736f6c634300081b0033","linkReferences":{}},"methodIdentifiers":{"createGame()":"7255d729","eip712Domain()":"84b0196e","flag()":"890eba68","getGameState()":"b7d0628b","guess(uint8)":"4ba4c16b"},"id":0}